{
  "_format": "hh-sol-artifact-1",
  "contractName": "MyEpicNFT",
  "sourceName": "contracts/MyEpicNft.sol",
  "abi": [
    {
      "inputs": [],
      "stateMutability": "nonpayable",
      "type": "constructor"
    },
    {
      "anonymous": false,
      "inputs": [
        {
          "indexed": true,
          "internalType": "address",
          "name": "owner",
          "type": "address"
        },
        {
          "indexed": true,
          "internalType": "address",
          "name": "approved",
          "type": "address"
        },
        {
          "indexed": true,
          "internalType": "uint256",
          "name": "tokenId",
          "type": "uint256"
        }
      ],
      "name": "Approval",
      "type": "event"
    },
    {
      "anonymous": false,
      "inputs": [
        {
          "indexed": true,
          "internalType": "address",
          "name": "owner",
          "type": "address"
        },
        {
          "indexed": true,
          "internalType": "address",
          "name": "operator",
          "type": "address"
        },
        {
          "indexed": false,
          "internalType": "bool",
          "name": "approved",
          "type": "bool"
        }
      ],
      "name": "ApprovalForAll",
      "type": "event"
    },
    {
      "anonymous": false,
      "inputs": [
        {
          "indexed": false,
          "internalType": "address",
          "name": "sender",
          "type": "address"
        },
        {
          "indexed": false,
          "internalType": "uint256",
          "name": "tokenId",
          "type": "uint256"
        }
      ],
      "name": "NewEpicNFTMinted",
      "type": "event"
    },
    {
      "anonymous": false,
      "inputs": [
        {
          "indexed": true,
          "internalType": "address",
          "name": "from",
          "type": "address"
        },
        {
          "indexed": true,
          "internalType": "address",
          "name": "to",
          "type": "address"
        },
        {
          "indexed": true,
          "internalType": "uint256",
          "name": "tokenId",
          "type": "uint256"
        }
      ],
      "name": "Transfer",
      "type": "event"
    },
    {
      "inputs": [],
      "name": "_tokenIds",
      "outputs": [
        {
          "internalType": "uint256",
          "name": "_value",
          "type": "uint256"
        }
      ],
      "stateMutability": "view",
      "type": "function"
    },
    {
      "inputs": [
        {
          "internalType": "address",
          "name": "to",
          "type": "address"
        },
        {
          "internalType": "uint256",
          "name": "tokenId",
          "type": "uint256"
        }
      ],
      "name": "approve",
      "outputs": [],
      "stateMutability": "nonpayable",
      "type": "function"
    },
    {
      "inputs": [
        {
          "internalType": "address",
          "name": "owner",
          "type": "address"
        }
      ],
      "name": "balanceOf",
      "outputs": [
        {
          "internalType": "uint256",
          "name": "",
          "type": "uint256"
        }
      ],
      "stateMutability": "view",
      "type": "function"
    },
    {
      "inputs": [
        {
          "internalType": "uint256",
          "name": "tokenId",
          "type": "uint256"
        }
      ],
      "name": "getApproved",
      "outputs": [
        {
          "internalType": "address",
          "name": "",
          "type": "address"
        }
      ],
      "stateMutability": "view",
      "type": "function"
    },
    {
      "inputs": [
        {
          "internalType": "address",
          "name": "owner",
          "type": "address"
        },
        {
          "internalType": "address",
          "name": "operator",
          "type": "address"
        }
      ],
      "name": "isApprovedForAll",
      "outputs": [
        {
          "internalType": "bool",
          "name": "",
          "type": "bool"
        }
      ],
      "stateMutability": "view",
      "type": "function"
    },
    {
      "inputs": [],
      "name": "makeAnEpicNFT",
      "outputs": [],
      "stateMutability": "nonpayable",
      "type": "function"
    },
    {
      "inputs": [],
      "name": "maxTokenIds",
      "outputs": [
        {
          "internalType": "uint256",
          "name": "",
          "type": "uint256"
        }
      ],
      "stateMutability": "view",
      "type": "function"
    },
    {
      "inputs": [],
      "name": "name",
      "outputs": [
        {
          "internalType": "string",
          "name": "",
          "type": "string"
        }
      ],
      "stateMutability": "view",
      "type": "function"
    },
    {
      "inputs": [],
      "name": "nftMintedSoFar",
      "outputs": [
        {
          "internalType": "uint256",
          "name": "",
          "type": "uint256"
        }
      ],
      "stateMutability": "view",
      "type": "function"
    },
    {
      "inputs": [
        {
          "internalType": "uint256",
          "name": "tokenId",
          "type": "uint256"
        }
      ],
      "name": "ownerOf",
      "outputs": [
        {
          "internalType": "address",
          "name": "",
          "type": "address"
        }
      ],
      "stateMutability": "view",
      "type": "function"
    },
    {
      "inputs": [
        {
          "internalType": "uint256",
          "name": "tokenId",
          "type": "uint256"
        }
      ],
      "name": "pickRandomColor",
      "outputs": [
        {
          "internalType": "string",
          "name": "",
          "type": "string"
        }
      ],
      "stateMutability": "view",
      "type": "function"
    },
    {
      "inputs": [
        {
          "internalType": "uint256",
          "name": "tokenId",
          "type": "uint256"
        }
      ],
      "name": "pickRandomFirstWord",
      "outputs": [
        {
          "internalType": "string",
          "name": "",
          "type": "string"
        }
      ],
      "stateMutability": "view",
      "type": "function"
    },
    {
      "inputs": [
        {
          "internalType": "uint256",
          "name": "tokenId",
          "type": "uint256"
        }
      ],
      "name": "pickRandomSecondWord",
      "outputs": [
        {
          "internalType": "string",
          "name": "",
          "type": "string"
        }
      ],
      "stateMutability": "view",
      "type": "function"
    },
    {
      "inputs": [
        {
          "internalType": "uint256",
          "name": "tokenId",
          "type": "uint256"
        }
      ],
      "name": "pickRandomThirdWord",
      "outputs": [
        {
          "internalType": "string",
          "name": "",
          "type": "string"
        }
      ],
      "stateMutability": "view",
      "type": "function"
    },
    {
      "inputs": [
        {
          "internalType": "address",
          "name": "from",
          "type": "address"
        },
        {
          "internalType": "address",
          "name": "to",
          "type": "address"
        },
        {
          "internalType": "uint256",
          "name": "tokenId",
          "type": "uint256"
        }
      ],
      "name": "safeTransferFrom",
      "outputs": [],
      "stateMutability": "nonpayable",
      "type": "function"
    },
    {
      "inputs": [
        {
          "internalType": "address",
          "name": "from",
          "type": "address"
        },
        {
          "internalType": "address",
          "name": "to",
          "type": "address"
        },
        {
          "internalType": "uint256",
          "name": "tokenId",
          "type": "uint256"
        },
        {
          "internalType": "bytes",
          "name": "_data",
          "type": "bytes"
        }
      ],
      "name": "safeTransferFrom",
      "outputs": [],
      "stateMutability": "nonpayable",
      "type": "function"
    },
    {
      "inputs": [
        {
          "internalType": "address",
          "name": "operator",
          "type": "address"
        },
        {
          "internalType": "bool",
          "name": "approved",
          "type": "bool"
        }
      ],
      "name": "setApprovalForAll",
      "outputs": [],
      "stateMutability": "nonpayable",
      "type": "function"
    },
    {
      "inputs": [
        {
          "internalType": "bytes4",
          "name": "interfaceId",
          "type": "bytes4"
        }
      ],
      "name": "supportsInterface",
      "outputs": [
        {
          "internalType": "bool",
          "name": "",
          "type": "bool"
        }
      ],
      "stateMutability": "view",
      "type": "function"
    },
    {
      "inputs": [],
      "name": "symbol",
      "outputs": [
        {
          "internalType": "string",
          "name": "",
          "type": "string"
        }
      ],
      "stateMutability": "view",
      "type": "function"
    },
    {
      "inputs": [
        {
          "internalType": "uint256",
          "name": "tokenId",
          "type": "uint256"
        }
      ],
      "name": "tokenURI",
      "outputs": [
        {
          "internalType": "string",
          "name": "",
          "type": "string"
        }
      ],
      "stateMutability": "view",
      "type": "function"
    },
    {
      "inputs": [
        {
          "internalType": "address",
          "name": "from",
          "type": "address"
        },
        {
          "internalType": "address",
          "name": "to",
          "type": "address"
        },
        {
          "internalType": "uint256",
          "name": "tokenId",
          "type": "uint256"
        }
      ],
      "name": "transferFrom",
      "outputs": [],
      "stateMutability": "nonpayable",
      "type": "function"
    }
  ],
  "bytecode": "0x60806040526200001b60076200077f60201b620013081760201c565b600855603260095560405180610100016040528060d381526020016200483560d39139600a90805190602001906200005592919062000859565b506040518060800160405280605681526020016200490860569139600b90805190602001906200008792919062000859565b506040518060c001604052806040518060400160405280600781526020017f466f72726573740000000000000000000000000000000000000000000000000081525081526020016040518060400160405280600681526020017f5472756d616e000000000000000000000000000000000000000000000000000081525081526020016040518060400160405280600a81526020017f48656973656e626572670000000000000000000000000000000000000000000081525081526020016040518060400160405280600a81526020017f4b65797a6572536f7a650000000000000000000000000000000000000000000081525081526020016040518060400160405280600681526020017f46656c756461000000000000000000000000000000000000000000000000000081525081526020016040518060400160405280600381526020017f4170750000000000000000000000000000000000000000000000000000000000815250815250600c90600662000205929190620008ea565b506040518060c001604052806040518060400160405280600681526020017f447261766964000000000000000000000000000000000000000000000000000081525081526020016040518060400160405280600681526020017f53616368696e000000000000000000000000000000000000000000000000000081525081526020016040518060400160405280600481526020017f4c6172610000000000000000000000000000000000000000000000000000000081525081526020016040518060400160405280600b81526020017f566976526963686172647300000000000000000000000000000000000000000081525081526020016040518060400160405280600581526020017f44686f6e6900000000000000000000000000000000000000000000000000000081525081526020016040518060400160405280600781526020017f4d63477261746800000000000000000000000000000000000000000000000000815250815250600d90600662000383929190620008ea565b506040518060c001604052806040518060400160405280600781526020017f4b75627269636b0000000000000000000000000000000000000000000000000081525081526020016040518060400160405280600981526020017f53636f727363657365000000000000000000000000000000000000000000000081525081526020016040518060400160405280600381526020017f526179000000000000000000000000000000000000000000000000000000000081525081526020016040518060400160405280600381526020017f53656e000000000000000000000000000000000000000000000000000000000081525081526020016040518060400160405280600a81526020017f56696c6c656e756576650000000000000000000000000000000000000000000081525081526020016040518060400160405280600581526020017f426f6f6e67000000000000000000000000000000000000000000000000000000815250815250600e90600662000501929190620008ea565b506040518060c001604052806040518060400160405280600381526020017f726564000000000000000000000000000000000000000000000000000000000081525081526020016040518060400160405280600781526020017f233038433241380000000000000000000000000000000000000000000000000081525081526020016040518060400160405280600581526020017f626c61636b00000000000000000000000000000000000000000000000000000081525081526020016040518060400160405280600681526020017f79656c6c6f77000000000000000000000000000000000000000000000000000081525081526020016040518060400160405280600481526020017f626c75650000000000000000000000000000000000000000000000000000000081525081526020016040518060400160405280600581526020017f677265656e000000000000000000000000000000000000000000000000000000815250815250600f9060066200067f929190620008ea565b503480156200068d57600080fd5b506040518060400160405280600981526020017f5371756172654e465400000000000000000000000000000000000000000000008152506040518060400160405280600681526020017f535155415245000000000000000000000000000000000000000000000000000081525081600090805190602001906200071292919062000859565b5080600190805190602001906200072b92919062000859565b505050620007796040518060400160405280601e81526020017f54686973206973206d79204e465420636f6e74726163742e20576f61682100008152506200078d60201b620013161760201c565b62000b0b565b600081600001549050919050565b6200082d81604051602401620007a4919062000a1f565b6040516020818303038152906040527f41304fac000000000000000000000000000000000000000000000000000000007bffffffffffffffffffffffffffffffffffffffffffffffffffffffff19166020820180517bffffffffffffffffffffffffffffffffffffffffffffffffffffffff83818316178352505050506200083060201b60201c565b50565b60008151905060006a636f6e736f6c652e6c6f679050602083016000808483855afa5050505050565b828054620008679062000a95565b90600052602060002090601f0160209004810192826200088b5760008555620008d7565b82601f10620008a657805160ff1916838001178555620008d7565b82800160010185558215620008d7579182015b82811115620008d6578251825591602001919060010190620008b9565b5b509050620008e6919062000951565b5090565b8280548282559060005260206000209081019282156200093e579160200282015b828111156200093d5782518290805190602001906200092c92919062000859565b50916020019190600101906200090b565b5b5090506200094d919062000970565b5090565b5b808211156200096c57600081600090555060010162000952565b5090565b5b808211156200099457600081816200098a919062000998565b5060010162000971565b5090565b508054620009a69062000a95565b6000825580601f10620009ba5750620009db565b601f016020900490600052602060002090810190620009da919062000951565b5b50565b6000620009eb8262000a43565b620009f7818562000a4e565b935062000a0981856020860162000a5f565b62000a148162000afa565b840191505092915050565b6000602082019050818103600083015262000a3b8184620009de565b905092915050565b600081519050919050565b600082825260208201905092915050565b60005b8381101562000a7f57808201518184015260208101905062000a62565b8381111562000a8f576000848401525b50505050565b6000600282049050600182168062000aae57607f821691505b6020821081141562000ac55762000ac462000acb565b5b50919050565b7f4e487b7100000000000000000000000000000000000000000000000000000000600052602260045260246000fd5b6000601f19601f8301169050919050565b613d1a8062000b1b6000396000f3fe608060405234801561001057600080fd5b50600436106101375760003560e01c806370a08231116100b8578063b187301f1161007c578063b187301f14610362578063b88d4fde14610392578063c575757a146103ae578063c87b56dd146103de578063de9d132f1461040e578063e985e9c51461041857610137565b806370a08231146102bc57806380138645146102ec57806395d89b411461030a578063a22cb46514610328578063aa46a4001461034457610137565b80632de38d68116100ff5780632de38d68146101f257806342842e0e14610222578063514dc8c61461023e5780635f7696211461026e5780636352211e1461028c57610137565b806301ffc9a71461013c57806306fdde031461016c578063081812fc1461018a578063095ea7b3146101ba57806323b872dd146101d6575b600080fd5b61015660048036038101906101519190612734565b610448565b6040516101639190612ec0565b60405180910390f35b61017461052a565b6040516101819190612edb565b60405180910390f35b6101a4600480360381019061019f9190612786565b6105bc565b6040516101b19190612e30565b60405180910390f35b6101d460048036038101906101cf91906126f8565b610641565b005b6101f060048036038101906101eb91906125f2565b610759565b005b61020c60048036038101906102079190612786565b6107b9565b6040516102199190612edb565b60405180910390f35b61023c600480360381019061023791906125f2565b6108d7565b005b61025860048036038101906102539190612786565b6108f7565b6040516102659190612edb565b60405180910390f35b610276610a15565b604051610283919061315b565b60405180910390f35b6102a660048036038101906102a19190612786565b610a1b565b6040516102b39190612e30565b60405180910390f35b6102d660048036038101906102d1919061258d565b610acd565b6040516102e3919061315b565b60405180910390f35b6102f4610b85565b604051610301919061315b565b60405180910390f35b610312610b8b565b60405161031f9190612edb565b60405180910390f35b610342600480360381019061033d91906126bc565b610c1d565b005b61034c610c33565b604051610359919061315b565b60405180910390f35b61037c60048036038101906103779190612786565b610c3f565b6040516103899190612edb565b60405180910390f35b6103ac60048036038101906103a79190612641565b610d5d565b005b6103c860048036038101906103c39190612786565b610dbf565b6040516103d59190612edb565b60405180910390f35b6103f860048036038101906103f39190612786565b610edd565b6040516104059190612edb565b60405180910390f35b61041661102f565b005b610432600480360381019061042d91906125b6565b611274565b60405161043f9190612ec0565b60405180910390f35b60007f80ac58cd000000000000000000000000000000000000000000000000000000007bffffffffffffffffffffffffffffffffffffffffffffffffffffffff1916827bffffffffffffffffffffffffffffffffffffffffffffffffffffffff1916148061051357507f5b5e139f000000000000000000000000000000000000000000000000000000007bffffffffffffffffffffffffffffffffffffffffffffffffffffffff1916827bffffffffffffffffffffffffffffffffffffffffffffffffffffffff1916145b806105235750610522826113af565b5b9050919050565b606060008054610539906133ef565b80601f0160208091040260200160405190810160405280929190818152602001828054610565906133ef565b80156105b25780601f10610587576101008083540402835291602001916105b2565b820191906000526020600020905b81548152906001019060200180831161059557829003601f168201915b5050505050905090565b60006105c782611419565b610606576040517f08c379a00000000000000000000000000000000000000000000000000000000081526004016105fd906130bb565b60405180910390fd5b6004600083815260200190815260200160002060009054906101000a900473ffffffffffffffffffffffffffffffffffffffff169050919050565b600061064c82610a1b565b90508073ffffffffffffffffffffffffffffffffffffffff168373ffffffffffffffffffffffffffffffffffffffff1614156106bd576040517f08c379a00000000000000000000000000000000000000000000000000000000081526004016106b49061311b565b60405180910390fd5b8073ffffffffffffffffffffffffffffffffffffffff166106dc611485565b73ffffffffffffffffffffffffffffffffffffffff16148061070b575061070a81610705611485565b611274565b5b61074a576040517f08c379a000000000000000000000000000000000000000000000000000000000815260040161074190612ffb565b60405180910390fd5b610754838361148d565b505050565b61076a610764611485565b82611546565b6107a9576040517f08c379a00000000000000000000000000000000000000000000000000000000081526004016107a09061313b565b60405180910390fd5b6107b4838383611624565b505050565b606060006107ed6107c98461188b565b6040516020016107d99190612dca565b604051602081830303815290604052611a38565b9050600c8054905081610800919061349b565b9050600c818154811061083c577f4e487b7100000000000000000000000000000000000000000000000000000000600052603260045260246000fd5b906000526020600020018054610851906133ef565b80601f016020809104026020016040519081016040528092919081815260200182805461087d906133ef565b80156108ca5780601f1061089f576101008083540402835291602001916108ca565b820191906000526020600020905b8154815290600101906020018083116108ad57829003601f168201915b5050505050915050919050565b6108f283838360405180602001604052806000815250610d5d565b505050565b6060600061092b6109078461188b565b6040516020016109179190612e0e565b604051602081830303815290604052611a38565b9050600f805490508161093e919061349b565b9050600f818154811061097a577f4e487b7100000000000000000000000000000000000000000000000000000000600052603260045260246000fd5b90600052602060002001805461098f906133ef565b80601f01602080910402602001604051908101604052809291908181526020018280546109bb906133ef565b8015610a085780601f106109dd57610100808354040283529160200191610a08565b820191906000526020600020905b8154815290600101906020018083116109eb57829003601f168201915b5050505050915050919050565b60095481565b6000806002600084815260200190815260200160002060009054906101000a900473ffffffffffffffffffffffffffffffffffffffff169050600073ffffffffffffffffffffffffffffffffffffffff168173ffffffffffffffffffffffffffffffffffffffff161415610ac4576040517f08c379a0000000000000000000000000000000000000000000000000000000008152600401610abb9061303b565b60405180910390fd5b80915050919050565b60008073ffffffffffffffffffffffffffffffffffffffff168273ffffffffffffffffffffffffffffffffffffffff161415610b3e576040517f08c379a0000000000000000000000000000000000000000000000000000000008152600401610b359061301b565b60405180910390fd5b600360008373ffffffffffffffffffffffffffffffffffffffff1673ffffffffffffffffffffffffffffffffffffffff168152602001908152602001600020549050919050565b60085481565b606060018054610b9a906133ef565b80601f0160208091040260200160405190810160405280929190818152602001828054610bc6906133ef565b8015610c135780601f10610be857610100808354040283529160200191610c13565b820191906000526020600020905b815481529060010190602001808311610bf657829003601f168201915b5050505050905090565b610c2f610c28611485565b8383611a6b565b5050565b60078060000154905081565b60606000610c73610c4f8461188b565b604051602001610c5f9190612d63565b604051602081830303815290604052611a38565b9050600d8054905081610c86919061349b565b9050600d8181548110610cc2577f4e487b7100000000000000000000000000000000000000000000000000000000600052603260045260246000fd5b906000526020600020018054610cd7906133ef565b80601f0160208091040260200160405190810160405280929190818152602001828054610d03906133ef565b8015610d505780601f10610d2557610100808354040283529160200191610d50565b820191906000526020600020905b815481529060010190602001808311610d3357829003601f168201915b5050505050915050919050565b610d6e610d68611485565b83611546565b610dad576040517f08c379a0000000000000000000000000000000000000000000000000000000008152600401610da49061313b565b60405180910390fd5b610db984848484611bd8565b50505050565b60606000610df3610dcf8461188b565b604051602001610ddf9190612d41565b604051602081830303815290604052611a38565b9050600e8054905081610e06919061349b565b9050600e8181548110610e42577f4e487b7100000000000000000000000000000000000000000000000000000000600052603260045260246000fd5b906000526020600020018054610e57906133ef565b80601f0160208091040260200160405190810160405280929190818152602001828054610e83906133ef565b8015610ed05780601f10610ea557610100808354040283529160200191610ed0565b820191906000526020600020905b815481529060010190602001808311610eb357829003601f168201915b5050505050915050919050565b6060610ee882611419565b610f27576040517f08c379a0000000000000000000000000000000000000000000000000000000008152600401610f1e9061309b565b60405180910390fd5b6000600660008481526020019081526020016000208054610f47906133ef565b80601f0160208091040260200160405190810160405280929190818152602001828054610f73906133ef565b8015610fc05780601f10610f9557610100808354040283529160200191610fc0565b820191906000526020600020905b815481529060010190602001808311610fa357829003601f168201915b505050505090506000610fd1611c34565b9050600081511415610fe757819250505061102a565b60008251111561101c578082604051602001611004929190612ca3565b6040516020818303038152906040529250505061102a565b61102584611c4b565b925050505b919050565b600061103b6007611308565b90506009548110611081576040517f08c379a0000000000000000000000000000000000000000000000000000000008152600401611078906130fb565b60405180910390fd5b600061108c826107b9565b9050600061109983610c3f565b905060006110a684610dbf565b905060008383836040516020016110bf93929190612cc7565b604051602081830303815290604052905060006110db866108f7565b90506000600a82600b856040516020016110f89493929190612cf8565b6040516020818303038152906040529050600061113d8461111884611cf2565b604051602001611129929190612d85565b604051602081830303815290604052611cf2565b90506000816040516020016111529190612dec565b60405160208183030381529060405290506111a16040518060400160405280601581526020017f0a2d2d2d2d2d2d2d2d2d2d2d2d2d2d2d2d2d2d2d2d0000000000000000000000815250611316565b6111aa81611316565b6111e86040518060400160405280601581526020017f2d2d2d2d2d2d2d2d2d2d2d2d2d2d2d2d2d2d2d2d0a0000000000000000000000815250611316565b6111f2338a611eb0565b6111fc8982611ece565b6112066007611f42565b88600881905550611230604051806060016040528060258152602001613c80602591398a33611f58565b7febb98688741ffa4c7589bf325de30cf7becb63de567842e1ccdb6cb949fdc82c338a604051611261929190612e97565b60405180910390a1505050505050505050565b6000600560008473ffffffffffffffffffffffffffffffffffffffff1673ffffffffffffffffffffffffffffffffffffffff16815260200190815260200160002060008373ffffffffffffffffffffffffffffffffffffffff1673ffffffffffffffffffffffffffffffffffffffff16815260200190815260200160002060009054906101000a900460ff16905092915050565b600081600001549050919050565b6113ac8160405160240161132a9190612edb565b6040516020818303038152906040527f41304fac000000000000000000000000000000000000000000000000000000007bffffffffffffffffffffffffffffffffffffffffffffffffffffffff19166020820180517bffffffffffffffffffffffffffffffffffffffffffffffffffffffff8381831617835250505050611ff7565b50565b60007f01ffc9a7000000000000000000000000000000000000000000000000000000007bffffffffffffffffffffffffffffffffffffffffffffffffffffffff1916827bffffffffffffffffffffffffffffffffffffffffffffffffffffffff1916149050919050565b60008073ffffffffffffffffffffffffffffffffffffffff166002600084815260200190815260200160002060009054906101000a900473ffffffffffffffffffffffffffffffffffffffff1673ffffffffffffffffffffffffffffffffffffffff1614159050919050565b600033905090565b816004600083815260200190815260200160002060006101000a81548173ffffffffffffffffffffffffffffffffffffffff021916908373ffffffffffffffffffffffffffffffffffffffff160217905550808273ffffffffffffffffffffffffffffffffffffffff1661150083610a1b565b73ffffffffffffffffffffffffffffffffffffffff167f8c5be1e5ebec7d5bd14f71427d1e84f3dd0314c0f7b2291e5b200ac8c7c3b92560405160405180910390a45050565b600061155182611419565b611590576040517f08c379a000000000000000000000000000000000000000000000000000000000815260040161158790612fdb565b60405180910390fd5b600061159b83610a1b565b90508073ffffffffffffffffffffffffffffffffffffffff168473ffffffffffffffffffffffffffffffffffffffff1614806115dd57506115dc8185611274565b5b8061161b57508373ffffffffffffffffffffffffffffffffffffffff16611603846105bc565b73ffffffffffffffffffffffffffffffffffffffff16145b91505092915050565b8273ffffffffffffffffffffffffffffffffffffffff1661164482610a1b565b73ffffffffffffffffffffffffffffffffffffffff161461169a576040517f08c379a000000000000000000000000000000000000000000000000000000000815260040161169190612f5b565b60405180910390fd5b600073ffffffffffffffffffffffffffffffffffffffff168273ffffffffffffffffffffffffffffffffffffffff16141561170a576040517f08c379a000000000000000000000000000000000000000000000000000000000815260040161170190612f9b565b60405180910390fd5b611715838383612020565b61172060008261148d565b6001600360008573ffffffffffffffffffffffffffffffffffffffff1673ffffffffffffffffffffffffffffffffffffffff16815260200190815260200160002060008282546117709190613305565b925050819055506001600360008473ffffffffffffffffffffffffffffffffffffffff1673ffffffffffffffffffffffffffffffffffffffff16815260200190815260200160002060008282546117c79190613224565b92505081905550816002600083815260200190815260200160002060006101000a81548173ffffffffffffffffffffffffffffffffffffffff021916908373ffffffffffffffffffffffffffffffffffffffff160217905550808273ffffffffffffffffffffffffffffffffffffffff168473ffffffffffffffffffffffffffffffffffffffff167fddf252ad1be2c89b69c2b068fc378daa952ba7f163c4a11628f55a4df523b3ef60405160405180910390a4611886838383612025565b505050565b606060008214156118d3576040518060400160405280600181526020017f30000000000000000000000000000000000000000000000000000000000000008152509050611a33565b600082905060005b600082146119055780806118ee90613452565b915050600a826118fe919061327a565b91506118db565b60008167ffffffffffffffff811115611947577f4e487b7100000000000000000000000000000000000000000000000000000000600052604160045260246000fd5b6040519080825280601f01601f1916602001820160405280156119795781602001600182028036833780820191505090505b5090505b60008514611a2c576001826119929190613305565b9150600a856119a1919061349b565b60306119ad9190613224565b60f81b8183815181106119e9577f4e487b7100000000000000000000000000000000000000000000000000000000600052603260045260246000fd5b60200101907effffffffffffffffffffffffffffffffffffffffffffffffffffffffffffff1916908160001a905350600a85611a25919061327a565b945061197d565b8093505050505b919050565b600081604051602001611a4b9190612c8c565b6040516020818303038152906040528051906020012060001c9050919050565b8173ffffffffffffffffffffffffffffffffffffffff168373ffffffffffffffffffffffffffffffffffffffff161415611ada576040517f08c379a0000000000000000000000000000000000000000000000000000000008152600401611ad190612fbb565b60405180910390fd5b80600560008573ffffffffffffffffffffffffffffffffffffffff1673ffffffffffffffffffffffffffffffffffffffff16815260200190815260200160002060008473ffffffffffffffffffffffffffffffffffffffff1673ffffffffffffffffffffffffffffffffffffffff16815260200190815260200160002060006101000a81548160ff0219169083151502179055508173ffffffffffffffffffffffffffffffffffffffff168373ffffffffffffffffffffffffffffffffffffffff167f17307eab39ab6107e8899845ad3d59bd9653f200f220920489ca2b5937696c3183604051611bcb9190612ec0565b60405180910390a3505050565b611be3848484611624565b611bef8484848461202a565b611c2e576040517f08c379a0000000000000000000000000000000000000000000000000000000008152600401611c2590612f3b565b60405180910390fd5b50505050565b606060405180602001604052806000815250905090565b6060611c5682611419565b611c95576040517f08c379a0000000000000000000000000000000000000000000000000000000008152600401611c8c906130db565b60405180910390fd5b6000611c9f611c34565b90506000815111611cbf5760405180602001604052806000815250611cea565b80611cc98461188b565b604051602001611cda929190612ca3565b6040516020818303038152906040525b915050919050565b60606000825190506000811415611d1b5760405180602001604052806000815250915050611eab565b60006003600283611d2c9190613224565b611d36919061327a565b6004611d4291906132ab565b90506000602082611d539190613224565b67ffffffffffffffff811115611d92577f4e487b7100000000000000000000000000000000000000000000000000000000600052604160045260246000fd5b6040519080825280601f01601f191660200182016040528015611dc45781602001600182028036833780820191505090505b5090506000604051806060016040528060408152602001613ca5604091399050600181016020830160005b86811015611e685760038101905062ffffff818a015116603f8160121c168401518060081b905060ff603f83600c1c1686015116810190508060081b905060ff603f8360061c1686015116810190508060081b905060ff603f831686015116810190508060e01b90508084526004840193505050611def565b506003860660018114611e825760028114611e9257611e9d565b613d3d60f01b6002830352611e9d565b603d60f81b60018303525b508484525050819450505050505b919050565b611eca8282604051806020016040528060008152506121c1565b5050565b611ed782611419565b611f16576040517f08c379a0000000000000000000000000000000000000000000000000000000008152600401611f0d9061305b565b60405180910390fd5b80600660008481526020019081526020016000209080519060200190611f3d929190612419565b505050565b6001816000016000828254019250508190555050565b611ff2838383604051602401611f7093929190612efd565b6040516020818303038152906040527fe3849f79000000000000000000000000000000000000000000000000000000007bffffffffffffffffffffffffffffffffffffffffffffffffffffffff19166020820180517bffffffffffffffffffffffffffffffffffffffffffffffffffffffff8381831617835250505050611ff7565b505050565b60008151905060006a636f6e736f6c652e6c6f679050602083016000808483855afa5050505050565b505050565b505050565b600061204b8473ffffffffffffffffffffffffffffffffffffffff1661221c565b156121b4578373ffffffffffffffffffffffffffffffffffffffff1663150b7a02612074611485565b8786866040518563ffffffff1660e01b81526004016120969493929190612e4b565b602060405180830381600087803b1580156120b057600080fd5b505af19250505080156120e157506040513d601f19601f820116820180604052508101906120de919061275d565b60015b612164573d8060008114612111576040519150601f19603f3d011682016040523d82523d6000602084013e612116565b606091505b5060008151141561215c576040517f08c379a000000000000000000000000000000000000000000000000000000000815260040161215390612f3b565b60405180910390fd5b805181602001fd5b63150b7a0260e01b7bffffffffffffffffffffffffffffffffffffffffffffffffffffffff1916817bffffffffffffffffffffffffffffffffffffffffffffffffffffffff1916149150506121b9565b600190505b949350505050565b6121cb838361223f565b6121d8600084848461202a565b612217576040517f08c379a000000000000000000000000000000000000000000000000000000000815260040161220e90612f3b565b60405180910390fd5b505050565b6000808273ffffffffffffffffffffffffffffffffffffffff163b119050919050565b600073ffffffffffffffffffffffffffffffffffffffff168273ffffffffffffffffffffffffffffffffffffffff1614156122af576040517f08c379a00000000000000000000000000000000000000000000000000000000081526004016122a69061307b565b60405180910390fd5b6122b881611419565b156122f8576040517f08c379a00000000000000000000000000000000000000000000000000000000081526004016122ef90612f7b565b60405180910390fd5b61230460008383612020565b6001600360008473ffffffffffffffffffffffffffffffffffffffff1673ffffffffffffffffffffffffffffffffffffffff16815260200190815260200160002060008282546123549190613224565b92505081905550816002600083815260200190815260200160002060006101000a81548173ffffffffffffffffffffffffffffffffffffffff021916908373ffffffffffffffffffffffffffffffffffffffff160217905550808273ffffffffffffffffffffffffffffffffffffffff16600073ffffffffffffffffffffffffffffffffffffffff167fddf252ad1be2c89b69c2b068fc378daa952ba7f163c4a11628f55a4df523b3ef60405160405180910390a461241560008383612025565b5050565b828054612425906133ef565b90600052602060002090601f016020900481019282612447576000855561248e565b82601f1061246057805160ff191683800117855561248e565b8280016001018555821561248e579182015b8281111561248d578251825591602001919060010190612472565b5b50905061249b919061249f565b5090565b5b808211156124b85760008160009055506001016124a0565b5090565b60006124cf6124ca8461319b565b613176565b9050828152602081018484840111156124e757600080fd5b6124f28482856133ad565b509392505050565b60008135905061250981613c23565b92915050565b60008135905061251e81613c3a565b92915050565b60008135905061253381613c51565b92915050565b60008151905061254881613c51565b92915050565b600082601f83011261255f57600080fd5b813561256f8482602086016124bc565b91505092915050565b60008135905061258781613c68565b92915050565b60006020828403121561259f57600080fd5b60006125ad848285016124fa565b91505092915050565b600080604083850312156125c957600080fd5b60006125d7858286016124fa565b92505060206125e8858286016124fa565b9150509250929050565b60008060006060848603121561260757600080fd5b6000612615868287016124fa565b9350506020612626868287016124fa565b925050604061263786828701612578565b9150509250925092565b6000806000806080858703121561265757600080fd5b6000612665878288016124fa565b9450506020612676878288016124fa565b935050604061268787828801612578565b925050606085013567ffffffffffffffff8111156126a457600080fd5b6126b08782880161254e565b91505092959194509250565b600080604083850312156126cf57600080fd5b60006126dd858286016124fa565b92505060206126ee8582860161250f565b9150509250929050565b6000806040838503121561270b57600080fd5b6000612719858286016124fa565b925050602061272a85828601612578565b9150509250929050565b60006020828403121561274657600080fd5b600061275484828501612524565b91505092915050565b60006020828403121561276f57600080fd5b600061277d84828501612539565b91505092915050565b60006020828403121561279857600080fd5b60006127a684828501612578565b91505092915050565b6127b881613339565b82525050565b6127c78161334b565b82525050565b60006127d8826131e1565b6127e281856131f7565b93506127f28185602086016133bc565b6127fb81613588565b840191505092915050565b6000612811826131ec565b61281b8185613208565b935061282b8185602086016133bc565b61283481613588565b840191505092915050565b600061284a826131ec565b6128548185613219565b93506128648185602086016133bc565b80840191505092915050565b6000815461287d816133ef565b6128878186613219565b945060018216600081146128a257600181146128b3576128e6565b60ff198316865281860193506128e6565b6128bc856131cc565b60005b838110156128de578154818901526001820191506020810190506128bf565b838801955050505b50505092915050565b60006128fc603283613208565b915061290782613599565b604082019050919050565b600061291f602583613208565b915061292a826135e8565b604082019050919050565b6000612942601c83613208565b915061294d82613637565b602082019050919050565b6000612965600a83613219565b915061297082613660565b600a82019050919050565b6000612988602483613208565b915061299382613689565b604082019050919050565b60006129ab601983613208565b91506129b6826136d8565b602082019050919050565b60006129ce606383613219565b91506129d982613701565b606382019050919050565b60006129f1600b83613219565b91506129fc8261379c565b600b82019050919050565b6000612a14602c83613208565b9150612a1f826137c5565b604082019050919050565b6000612a37600d83613219565b9150612a4282613814565b600d82019050919050565b6000612a5a603883613208565b9150612a658261383d565b604082019050919050565b6000612a7d602a83613208565b9150612a888261388c565b604082019050919050565b6000612aa0602983613208565b9150612aab826138db565b604082019050919050565b6000612ac3602e83613208565b9150612ace8261392a565b604082019050919050565b6000612ae6600283613219565b9150612af182613979565b600282019050919050565b6000612b09602083613208565b9150612b14826139a2565b602082019050919050565b6000612b2c603183613208565b9150612b37826139cb565b604082019050919050565b6000612b4f602c83613208565b9150612b5a82613a1a565b604082019050919050565b6000612b72602f83613208565b9150612b7d82613a69565b604082019050919050565b6000612b95600a83613219565b9150612ba082613ab8565b600a82019050919050565b6000612bb8601383613208565b9150612bc382613ae1565b602082019050919050565b6000612bdb602183613208565b9150612be682613b0a565b604082019050919050565b6000612bfe600a83613219565b9150612c0982613b59565b600a82019050919050565b6000612c21601d83613219565b9150612c2c82613b82565b601d82019050919050565b6000612c44603183613208565b9150612c4f82613bab565b604082019050919050565b6000612c67600583613219565b9150612c7282613bfa565b600582019050919050565b612c86816133a3565b82525050565b6000612c98828461283f565b915081905092915050565b6000612caf828561283f565b9150612cbb828461283f565b91508190509392505050565b6000612cd3828661283f565b9150612cdf828561283f565b9150612ceb828461283f565b9150819050949350505050565b6000612d048287612870565b9150612d10828661283f565b9150612d1c8285612870565b9150612d28828461283f565b9150612d3382612a2a565b915081905095945050505050565b6000612d4c82612958565b9150612d58828461283f565b915081905092915050565b6000612d6e826129e4565b9150612d7a828461283f565b915081905092915050565b6000612d9082612b88565b9150612d9c828561283f565b9150612da7826129c1565b9150612db3828461283f565b9150612dbe82612ad9565b91508190509392505050565b6000612dd582612bf1565b9150612de1828461283f565b915081905092915050565b6000612df782612c14565b9150612e03828461283f565b915081905092915050565b6000612e1982612c5a565b9150612e25828461283f565b915081905092915050565b6000602082019050612e4560008301846127af565b92915050565b6000608082019050612e6060008301876127af565b612e6d60208301866127af565b612e7a6040830185612c7d565b8181036060830152612e8c81846127cd565b905095945050505050565b6000604082019050612eac60008301856127af565b612eb96020830184612c7d565b9392505050565b6000602082019050612ed560008301846127be565b92915050565b60006020820190508181036000830152612ef58184612806565b905092915050565b60006060820190508181036000830152612f178186612806565b9050612f266020830185612c7d565b612f3360408301846127af565b949350505050565b60006020820190508181036000830152612f54816128ef565b9050919050565b60006020820190508181036000830152612f7481612912565b9050919050565b60006020820190508181036000830152612f9481612935565b9050919050565b60006020820190508181036000830152612fb48161297b565b9050919050565b60006020820190508181036000830152612fd48161299e565b9050919050565b60006020820190508181036000830152612ff481612a07565b9050919050565b6000602082019050818103600083015261301481612a4d565b9050919050565b6000602082019050818103600083015261303481612a70565b9050919050565b6000602082019050818103600083015261305481612a93565b9050919050565b6000602082019050818103600083015261307481612ab6565b9050919050565b6000602082019050818103600083015261309481612afc565b9050919050565b600060208201905081810360008301526130b481612b1f565b9050919050565b600060208201905081810360008301526130d481612b42565b9050919050565b600060208201905081810360008301526130f481612b65565b9050919050565b6000602082019050818103600083015261311481612bab565b9050919050565b6000602082019050818103600083015261313481612bce565b9050919050565b6000602082019050818103600083015261315481612c37565b9050919050565b60006020820190506131706000830184612c7d565b92915050565b6000613180613191565b905061318c8282613421565b919050565b6000604051905090565b600067ffffffffffffffff8211156131b6576131b5613559565b5b6131bf82613588565b9050602081019050919050565b60008190508160005260206000209050919050565b600081519050919050565b600081519050919050565b600082825260208201905092915050565b600082825260208201905092915050565b600081905092915050565b600061322f826133a3565b915061323a836133a3565b9250827fffffffffffffffffffffffffffffffffffffffffffffffffffffffffffffffff0382111561326f5761326e6134cc565b5b828201905092915050565b6000613285826133a3565b9150613290836133a3565b9250826132a05761329f6134fb565b5b828204905092915050565b60006132b6826133a3565b91506132c1836133a3565b9250817fffffffffffffffffffffffffffffffffffffffffffffffffffffffffffffffff04831182151516156132fa576132f96134cc565b5b828202905092915050565b6000613310826133a3565b915061331b836133a3565b92508282101561332e5761332d6134cc565b5b828203905092915050565b600061334482613383565b9050919050565b60008115159050919050565b60007fffffffff0000000000000000000000000000000000000000000000000000000082169050919050565b600073ffffffffffffffffffffffffffffffffffffffff82169050919050565b6000819050919050565b82818337600083830152505050565b60005b838110156133da5780820151818401526020810190506133bf565b838111156133e9576000848401525b50505050565b6000600282049050600182168061340757607f821691505b6020821081141561341b5761341a61352a565b5b50919050565b61342a82613588565b810181811067ffffffffffffffff8211171561344957613448613559565b5b80604052505050565b600061345d826133a3565b91507fffffffffffffffffffffffffffffffffffffffffffffffffffffffffffffffff8214156134905761348f6134cc565b5b600182019050919050565b60006134a6826133a3565b91506134b1836133a3565b9250826134c1576134c06134fb565b5b828206905092915050565b7f4e487b7100000000000000000000000000000000000000000000000000000000600052601160045260246000fd5b7f4e487b7100000000000000000000000000000000000000000000000000000000600052601260045260246000fd5b7f4e487b7100000000000000000000000000000000000000000000000000000000600052602260045260246000fd5b7f4e487b7100000000000000000000000000000000000000000000000000000000600052604160045260246000fd5b6000601f19601f8301169050919050565b7f4552433732313a207472616e7366657220746f206e6f6e20455243373231526560008201527f63656976657220696d706c656d656e7465720000000000000000000000000000602082015250565b7f4552433732313a207472616e736665722066726f6d20696e636f72726563742060008201527f6f776e6572000000000000000000000000000000000000000000000000000000602082015250565b7f4552433732313a20746f6b656e20616c7265616479206d696e74656400000000600082015250565b7f54484952445f574f524400000000000000000000000000000000000000000000600082015250565b7f4552433732313a207472616e7366657220746f20746865207a65726f2061646460008201527f7265737300000000000000000000000000000000000000000000000000000000602082015250565b7f4552433732313a20617070726f766520746f2063616c6c657200000000000000600082015250565b7f222c20226465736372697074696f6e223a20224120686967686c79206163636c60008201527f61696d656420636f6c6c656374696f6e206f6620737175617265732e222c202260208201527f696d616765223a2022646174613a696d6167652f7376672b786d6c3b6261736560408201527f36342c0000000000000000000000000000000000000000000000000000000000606082015250565b7f5345434f4e445f574f5244000000000000000000000000000000000000000000600082015250565b7f4552433732313a206f70657261746f7220717565727920666f72206e6f6e657860008201527f697374656e7420746f6b656e0000000000000000000000000000000000000000602082015250565b7f3c2f746578743e3c2f7376673e00000000000000000000000000000000000000600082015250565b7f4552433732313a20617070726f76652063616c6c6572206973206e6f74206f7760008201527f6e6572206e6f7220617070726f76656420666f7220616c6c0000000000000000602082015250565b7f4552433732313a2062616c616e636520717565727920666f7220746865207a6560008201527f726f206164647265737300000000000000000000000000000000000000000000602082015250565b7f4552433732313a206f776e657220717565727920666f72206e6f6e657869737460008201527f656e7420746f6b656e0000000000000000000000000000000000000000000000602082015250565b7f45524337323155524953746f726167653a2055524920736574206f66206e6f6e60008201527f6578697374656e7420746f6b656e000000000000000000000000000000000000602082015250565b7f227d000000000000000000000000000000000000000000000000000000000000600082015250565b7f4552433732313a206d696e7420746f20746865207a65726f2061646472657373600082015250565b7f45524337323155524953746f726167653a2055524920717565727920666f722060008201527f6e6f6e6578697374656e7420746f6b656e000000000000000000000000000000602082015250565b7f4552433732313a20617070726f76656420717565727920666f72206e6f6e657860008201527f697374656e7420746f6b656e0000000000000000000000000000000000000000602082015250565b7f4552433732314d657461646174613a2055524920717565727920666f72206e6f60008201527f6e6578697374656e7420746f6b656e0000000000000000000000000000000000602082015250565b7f7b226e616d65223a202200000000000000000000000000000000000000000000600082015250565b7f4578636565646564206d617820737570706c7900000000000000000000000000600082015250565b7f4552433732313a20617070726f76616c20746f2063757272656e74206f776e6560008201527f7200000000000000000000000000000000000000000000000000000000000000602082015250565b7f46495253545f574f524400000000000000000000000000000000000000000000600082015250565b7f646174613a6170706c69636174696f6e2f6a736f6e3b6261736536342c000000600082015250565b7f4552433732313a207472616e736665722063616c6c6572206973206e6f74206f60008201527f776e6572206e6f7220617070726f766564000000000000000000000000000000602082015250565b7f434f4c4f52000000000000000000000000000000000000000000000000000000600082015250565b613c2c81613339565b8114613c3757600080fd5b50565b613c438161334b565b8114613c4e57600080fd5b50565b613c5a81613357565b8114613c6557600080fd5b50565b613c71816133a3565b8114613c7c57600080fd5b5056fe416e204e465420772f20494420257320686173206265656e206d696e74656420746f2025734142434445464748494a4b4c4d4e4f505152535455565758595a6162636465666768696a6b6c6d6e6f707172737475767778797a303132333435363738392b2fa26469706673582212208ebaff61347ec3b828bc1e69a88a490b9a3204a6b3f634d048e7cd41d64bc43764736f6c634300080100333c73766720786d6c6e733d27687474703a2f2f7777772e77332e6f72672f323030302f73766727207072657365727665417370656374526174696f3d27784d696e594d696e206d656574272076696577426f783d273020302033353020333530273e3c7374796c653e2e62617365207b2066696c6c3a2077686974653b20666f6e742d66616d696c793a2073657269663b20666f6e742d73697a653a20323470783b207d3c2f7374796c653e3c726563742077696474683d273130302527206865696768743d2731303025272066696c6c3d27272f3e3c7465787420783d273530252720793d273530252720636c6173733d27626173652720646f6d696e616e742d626173656c696e653d276d6964646c652720746578742d616e63686f723d276d6964646c65273e",
  "linkReferences": {},
  "deployedLinkReferences": {}
}